:1000000000400020710100009D0100009D010000E2
:100010009D0100009D0100009D0100009D01000068
:100020009D0100009D0100009D0100009D01000058
:100030009D0100009D0100009D0100009D01000048
:100040009D0100009D0100009D0100009D01000038
:100050009D0100009D0100009D0100009D01000028
:100060009D0100009D0100009D0100009D01000018
:100070009D0100009D0100009D0100009D01000008
:100080009D0100009D0100009D0100009D010000F8
:100090009D0100009D0100009D0100009D010000E8
:1000A0009D0100009D0100009D0100009D010000D8
:1000B0009D0100009D0100009D01000010B5054C50
:1000C000237833B9044B13B10448AFF30080012304
:1000D000237010BD7C0000200000000034300000C0
:1000E00008B5034B1BB103490348AFF3008008BDBB
:1000F000000000008000002034300000154B002B71
:1001000008BF134B9D46A3F5803A00218B460F464E
:100110001348144A121A02F095F90F4B002B00D025
:1001200098470E4B002B00D0984700200021040078
:100130000D000D48002802D00C48AFF3008002F0FB
:100140005DF92000290001F0B1F802F043F900BF89
:100150000000080000400020000000000000000037
:100160007C000020A800002000000000000000002B
:10017000064880470649074A074B9A42BEBF51F8D6
:10018000040B42F8040BF8E7FFF7B8FFF102000098
:1001900040300000000000207C000020FEE700BF8F
:1001A00080B400AF034BDB6C1B0EDBB21846BD46C0
:1001B00080BC7047B081E00F80B582B000AF00F026
:1001C0001FF87860074B5B6803F00F037A6822FA28
:1001D00003F37B60044A7B6813607B68184608372A
:1001E000BD4680BD00800C400800002080B400AFF8
:1001F000024B1846BD4680BC704700BF0048E8016E
:1002000080B582B000AF2F4BDB6A03F47053B3F5B7
:10021000805F0AD0B3F5005F03D0B3F5006F08D05C
:100220000BE0294B1B687B6047E04FF400437B6089
:1002300043E0264B1B687B603FE0224BDB6803F406
:10024000E063B3F5007F1BD0B3F5007F05D8002B2A
:1002500024D0B3F5807F16D02BE0B3F5806F09D0A2
:10026000B3F5A06F03D0B3F5407F06D021E0184B63
:100270007B6021E0174B7B601EE0174B7B601BE02F
:10028000164B7B6018E0FFF78BFF0346122B02D959
:10029000134B7B6010E0134B7B600DE0FFF780FF9A
:1002A0000346122B02D9104B7B6005E00F4B7B609D
:1002B00002E000237B6000BF00BF7B681846083760
:1002C000BD4680BD00800C400400002000000020DE
:1002D000003FAB01406F4001809FD500C0D8A70010
:1002E00040B56400C0CF6A00804F120040420F004A
:1002F00080B400AF034B044A9A6000BFBD4680BC87
:10030000704700BF00ED00E00000000080B487B03F
:1003100000AFF860B9607A60FB6803F10473DA003B
:10032000BB6813449B007B617B697A681A6000BFDD
:100330001C37BD4680BC704780B485B000AF786084
:1003400039607B6803F10473DA003B6813449B0057
:10035000FB60FB681B6818461437BD4680BC7047BD
:1003600080B483B000AF0346FB71FB79002B06D04D
:10037000084B1B68074A43F00103136005E0054B77
:100380001B68044A23F00103136000BF0C37BD460D
:1003900080BC704700A0084080B483B000AF034623
:1003A000FB71FB79002B03D0054B01221A6602E09A
:1003B000034B00221A6600BF0C37BD4680BC704755
:1003C00000A0084080B483B000AF786000BF054B48
:1003D0005A6E7B681340002BF9D100BF0C37BD4625
:1003E00080BC704700A0084080B483B000AF786044
:1003F000054B9A6A7B68DB43034913408B6200BF5D
:100400000C37BD4680BC704700A0084080B584B062
:1004100000AF78601B4B5B68FB600020FFF7A0FF1C
:10042000FB6823F4C03323F01F03FB607B685B7819
:100430001A46FB681343FB607B689B781A46FB688F
:100440001343FB607B68DB781A46FB681343FB6051
:100450007B685B68FA681343FB607B681B891A46FC
:10046000FB681343FB60074AFB6853607B681B789B
:10047000002B02D00120FFF773FF00BF1037BD46ED
:1004800080BD00BF00A0084080B485B000AF786098
:100490000D4B5B68FB60FB6823F48033FB607B687B
:1004A000002B08D0B3F5803F00D005E0FB6843F493
:1004B0008033FB6000E000BF034AFB68536000BF6D
:1004C0001437BD4680BC704700A0084080B483B09C
:1004D00000AF03460A46FB8013467B717B79002BF5
:1004E00006D0094B9A68FB88074913438B6006E0E6
:1004F000054B9A68FB88DB43034913408B6000BFC0
:100500000C37BD4680BC704700A0084080B584B061
:1005100000AFF860B9601346FB71FB68032B5BD832
:1005200001A252F823F000BF390500006105000068
:1005300089050000B1050000BB681F2B06DCBB6805
:10054000FA7919462748FFF7E1FE46E0BB68203BF1
:10055000BB60BB68FA7919462348FFF7D7FE3CE039
:10056000BB681F2B06DCBB68FA7919461F48FFF7EA
:10057000CDFE32E0BB68203BBB60BB68FA79194610
:100580001B48FFF7C3FE28E0BB681F2B06DCBB68D7
:10059000FA7919461748FFF7B9FE1EE0BB68203B01
:1005A000BB60BB68FA7919461348FFF7AFFE14E049
:1005B000BB681F2B06DCBB68FA7919460F48FFF7AA
:1005C000A5FE0AE0BB68203BBB60BB68FA79194610
:1005D0000B48FFF79BFE00E000BF00BF1037BD4691
:1005E00080BD00BF40A0084050A0084044A0084083
:1005F00054A0084048A0084058A008404CA008401B
:100600005CA0084080B487B000AFF860B9607A6041
:10061000FB68032B52D801A252F823F02D060000EC
:10062000510600007506000099060000264B1B6C61
:100630007B61BB68DB437A6913407B61BA687B6886
:1006400013407A6913437B611F4A7B69136436E068
:100650001D4B5B6C7B61BB68DB437A6913407B613C
:10066000BA687B6813407A6913437B61164A7B69D9
:10067000536424E0144B9B6C7B61BB68DB437A6959
:1006800013407B61BA687B6813407A6913437B61CE
:100690000D4A7B69936412E00B4BDB6C7B61BB689A
:1006A000DB437A6913407B61BA687B6813407A69DF
:1006B00013437B61044A7B69D36400E000BF00BF41
:1006C0001C37BD4680BC704700A0084080B487B08E
:1006D00000AFF860B9607A60FB68032B52D801A2C2
:1006E00052F823F0F5060000190700003D0700004E
:1006F00061070000264B1B6D7B61BB68DB437A6999
:1007000013407B61BA687B6813407A6913437B614D
:100710001F4A7B69136536E01D4B5B6D7B61BB68CF
:10072000DB437A6913407B61BA687B6813407A695E
:1007300013437B61164A7B69536524E0144B9B6D20
:100740007B61BB68DB437A6913407B61BA687B6875
:1007500013407A6913437B610D4A7B69936512E00C
:100760000B4BDB6D7B61BB68DB437A6913407B61BC
:10077000BA687B6813407A6913437B61044A7B69DA
:10078000D36500E000BF00BF1C37BD4680BC70478A
:1007900000A0084080B483B000AF7860064B5B686F
:1007A00023F4E01204497B6813434B6000BF0C370D
:1007B000BD4680BC704700BF00A0084080B485B033
:1007C00000AF78607B68002B03D07B68B3F5004FE7
:1007D00000BF7B68B3FA83F3DBB2C3F11F03FB6096
:1007E000FB6818461437BD4680BC704780B485B09E
:1007F00000AF78603960194B5B6803F00703FB605A
:10080000FB68012B02D80023FB7202E00123FB727C
:1008100000BF7B68124A93420BD87B68114A93420F
:1008200007D9FB7A002B01D0032300E00123FB60F2
:1008300006E0FB7A002B01D0022300E00023FB60DE
:10084000064B5B6823F007020449FB6813434B60C7
:1008500000BF1437BD4680BC704700BF00000C408D
:100860000048E8010024F40080B582B000AF0E4BD0
:10087000DB6B002B14BF01230023FB710A4B41F6F5
:100880007132DA63FFF7B2FC034600211846FFF726
:10089000ADFFFB79002B02D0034B0022DA6300BFCF
:1008A0000837BD4680BD00BF00000C4080B584B055
:1008B00000AF786039600C4BDB6B002B14BF012359
:1008C0000023FB73084B41F67132DA6339687868AC
:1008D000FFF78CFFFB7B002B02D0034B0022DA6377
:1008E00000BF1037BD4680BD00000C4080B483B00F
:1008F00000AF7860094B5B6D03F00103002B07D15B
:1009000000BF064B1A6D7B681340002BF9D100E045
:1009100000BF0C37BD4680BC704700BF00800C4054
:1009200080B400AF00BFBD4680BC704780B400AF4C
:1009300000BFBD4680BC704790B585B000AF786001
:1009400039607B681B0903F00F03FB60FB68043B05
:10095000052B00F2B38001A252F823F075090000C4
:10096000BD0A0000BD0A00009D090000D709000073
:10097000690A00003B68002B03D03B68B3F5007F99
:1009800000BF3868FFF71AFF38604F4B9B6823F0B1
:100990000F024D493B6813438B6090E03B68002B8E
:1009A00003D03B68B3F5007F00BFFFF75DFF3868F9
:1009B000FFF704FF3860444B5B6823F00F024249A5
:1009C0003B6813434B60FFF7F7FBB8600021B86842
:1009D000FFF76CFF73E07B683C4A934216D03C4AB9
:1009E000934224D03B4A934200D03CE00420FFF7DE
:1009F0007DFF3868FFF7E2FE3860334B9B6E23F0D3
:100A00000F0231493B6813438B662CE00420FFF74B
:100A10006DFF3868FFF7D2FE38602B4B9B6E23F0DA
:100A2000F0023B681B01284913438B661BE03B68BF
:100A30000F2B02D93B68802B00BF0420FFF756FF25
:100A40003868FFF7BBFE38601F4B9B6E23F4407481
:100A50001020FFF7B3FE02463B689B1A1B021A4A9E
:100A60002343936600BF2AE07B681B4A934203D06E
:100A70001A4A934210D020E04020FFF737FF386831
:100A8000FFF79CFE3860104B1B6F23F003020E49EA
:100A90003B6813430B6710E04020FFF727FF3868DF
:100AA000FFF78CFE3860084B1B6F23F030023B6869
:100AB0001B01054913430B6700BF00E000BF00BFE7
:100AC0001437BD4690BD00BF00800C408016160054
:100AD00080002800800612009007180090171A0066
:100AE00080B586B000AF78600B46FB7000233B6199
:100AF0007B681B0A03F00F03013B092B3ED801A2C0
:100B000052F823F0330B0000390B00002D0B0000CE
:100B10007D0B00007D0B00003F0B0000490B000027
:100B20007D0B00007D0B0000530B0000154B7B611B
:100B300012E0154B7B610FE0144B7B610CE0144B12
:100B40007B6101233B6107E0124B7B6110233B611A
:100B500002E0114B7B6100BF7B681B0B03F01F039E
:100B6000FB603B69002B02D03869FFF7BFFEFB78C2
:100B70001A46F9687869FFF7C9FB00E000BF18372B
:100B8000BD4680BD40800C4008800C4044800C4035
:100B900058800C4060800C4078800C4080B588B054
:100BA00000AF78600B46FB700323FB610323FB76E9
:100BB0007B6803F00F033B613B69012B05D0012BE0
:100BC000C0F08180032B7ED839E0FB78023B032BF9
:100BD0007BD801A252F823F0E90B0000F30B0000D0
:100BE000FD0B0000070C00000423FB610023FB76D3
:100BF0000EE00323FB610123FB7609E00223FB6186
:100C00000223FB7604E00123FB610323FB7600BF94
:100C1000FB7E01220121184600F080F8FFF724FE38
:100C2000FFF77EFE2C4AFB695362FFF7C5FAF860B6
:100C30000021F868FFF73AFEFFF778FE48E0FB78FE
:100C4000013B052B43D801A252F823F0650C0000AC
:100C50006B0C00007B0C0000CF0C0000CF0C0000E0
:100C60008B0C000000237B6117E001220121002092
:100C700000F054F802237B610FE0012201210120E2
:100C800000F04CF801237B6107E0012202211348A8
:100C9000FFF73CFB03237B6100BF3B69022B08D1BC
:100CA0000D4B9B6A23F003020B497B6913438B6254
:100CB0000EE0094B9B6A23F00C027B699B000649FE
:100CC00013438B6204E000BF02E000BF00E000BFFE
:100CD0002037BD4680BD00BF00800C4040800C40E6
:100CE00080B483B000AF78600B4B9B6D03F00403BE
:100CF000002B0CD17B6803F007037B60064BDB6F96
:100D000023F0070204497B681343CB6700E000BF70
:100D10000C37BD4680BC704700800C4080B586B063
:100D200000AF0346FB710B46BB7113467B71FB7929
:100D3000042B48D801A252F823F000BF890D00000F
:100D40007B0D00005F0D0000510D00006D0D0000D7
:100D500001233B610223FB6001237B611DE004232F
:100D60003B610823FB6003237B6116E010233B619A
:100D70002023FB6005237B610FE040233B61802340
:100D8000FB6007237B6108E04FF480733B614FF405
:100D90000073FB6009237B6100BFBB79002B0ED081
:100DA0000B4A3B6913627B79002B0DD000BF796938
:100DB0000848FFF7C1FA0346002BF8D004E0044AC4
:100DC000FB68136200E000BF1837BD4680BD00BF5E
:100DD00000800C402C800C4080B500AF00224FF00A
:100DE000FF310020FFF70EFC00224FF0FF31012001
:100DF000FFF708FC00224FF0FF310220FFF702FC52
:100E000000224FF0FF310320FFF7FCFB0022FF21FF
:100E10000020FFF75BFC0022FF210120FFF756FCBA
:100E20000022FF210220FFF751FC0022FF210320B6
:100E3000FFF74CFC00BF80BD80B500AF00220A491F
:100E40000020FFF7DFFB002208490120FFF7DAFB53
:100E5000002206490220FFF7D5FB002203490320A8
:100E6000FFF7D0FB00BF80BD00CCCC7EFCFEFF7F37
:100E700080B582B000AF0346FB7101211B48FFF72C
:100E80002FFE03211A48FFF789FE80211948FFF73A
:100E900053FD0020FFF724FF01211748FFF720FE34
:100EA0004FF0FF30FFF7A0FA1448FFF7AFFA012127
:100EB00040F2FF30FFF70AFBFB79002B0CD000203B
:100EC000FFF768FC4FF48030FFF7DEFA0C4BDB6F66
:100ED0000B4A43F00803D367FFF77EFF4FF0FF3064
:100EE000FFF770FA00BF0837BD4680BD002302003F
:100EF00002001C008000280000262A009C2F000011
:100F000000800C4080B58AB000AF7860786801F04E
:100F1000D5FA0346BB6100233B624FF0FF30FFF779
:100F200051FA0120FFF738FAFFF786FF00233B62F2
:100F300045E03A6ABB699A4203DA7B681B787B62B8
:100F400001E020237B627B6A203B7B62214A7B6A33
:100F500032F81330FB820023FB6127E01E493A6A16
:100F60001346DB009B1A9B00CA18FB6913440E331F
:100F70001B783B6118493A6A1346DB009B1A9B00B9
:100F8000CA18FB6913441B78FB60FA8AFB6942FAB2
:100F900003F303F00103002B05D0FB68396901223C
:100FA0001846FFF7B3FAFB690133FB61FB690D2BB0
:100FB000D4DD7B6801337B603B6A01333B623B6A73
:100FC000062BB6DD0020FFF7E7F900BF2837BD4646
:100FD00080BD00BFE42E0000E42C000090B585B079
:100FE00000AFF860B9607A60B968B86800F0EAFFED
:100FF00003464FF08341184600F0DCFE03461C46D2
:101000007968786800F0DEFF03461946204600F054
:10101000CFFE03464FF08241184601F087F80346A1
:101020001A46FB681A60B968B86800F0CBFF03463F
:101030001C46FB681A68FB681B681946104600F0DE
:10104000C1FF03461946204600F0B2FE034618468B
:1010500000F0E6F90246FB685A6000BF1437BD464F
:1010600090BDB0B590B000AFF860B9607A604FF055
:101070000003BB634FF00003FB6300237B6218E0B7
:101080007B6ADB00BA6813441B681946B86B00F032
:1010900091FE0346BB637B6ADB00BA6813445B685E
:1010A0001946F86B00F086FE0346FB637B6A01334A
:1010B0007B627A6A7B689A42E2DB786800F02EFFF6
:1010C00003461946B86B01F031F80346BB637868F4
:1010D00000F024FF03461946F86B01F027F8034699
:1010E000FB6378686B461D46431E3B620346194608
:1010F0004FF000024FF000034FF00004540144EAA7
:10110000D1644B01034619464FF000024FF0000333
:101110004FF00004540144EAD1644B0103469B00A4
:1011200003330733DB08DB00ADEB030D6B46033302
:101130009B089B00FB617868431EBB610346194610
:101140004FF000024FF000034FF00004540144EA56
:10115000D1644B01034619464FF000024FF00003E3
:101160004FF00004540144EAD1644B0103469B0054
:1011700003330733DB08DB00ADEB030D6B460333B2
:101180009B089B007B610023BB6220E0BB6ADB0005
:10119000BA6813441B68B96B184600F009FE034691
:1011A0001946FB69BA6A43F82210BB6ADB00BA68C9
:1011B00013445B68F96B184600F0FAFD03461946C4
:1011C0007B69BA6A43F82210BB6A0133BB62BA6A10
:1011D0007B689A42DADB4FF00003FB624FF00003BA
:1011E0003B6300237B6326E0FB697A6B53F82200A4
:1011F0007B697A6B53F82230194600F0E3FE034610
:101200001946F86A00F0D6FD0346FB62FB697A6B6B
:1012100053F82200FB697A6B53F82230194600F02C
:10122000D1FE03461946386B00F0C4FD03463B630C
:101230007B6B01337B637A6B7B689A42D4DB396BBF
:10124000F86A00F073FF03461A46FB681A60FB68F1
:101250001B68B96B184600F0B5FE03461946F86BDB
:1012600000F0A6FD03461A46FB685A60AD4600BF73
:101270004037BD46B0BD80B485B000AF78603960FE
:101280000023FB6009E0FB689B007A6813444FF081
:101290007E521A60FB680133FB60FA683B689A4231
:1012A000F1DB00BF1437BD4680BC704790B5ADF58B
:1012B000FB5D87B000AF0020FFF7DAFD002307F5E4
:1012C000FB5202F114021360022307F5FB5202F1F4
:1012D0001002136007F5FB5303F110031868431E57
:1012E00007F5FB5202F10C021360034619464FF05A
:1012F00000024FF000034FF00004540144EAD164AF
:101300004B01034619464FF000024FF000034FF027
:101310000004540144EAD1644B0103469B000333AB
:101320000733DB08DB00ADEB030D6B4603339B0893
:101330009B0007F5FB5202F10802136007F5FB530F
:1013400003F108031B6807F5FB5202F11002116854
:101350001846FFF790FF07F5FB5303F108031B68DE
:10136000196807F5FB5303F108031B685A6807F176
:1013700018030C3B1846FFF731FE07F11802043A38
:1013800007F5FB5303F114031B6807F118010C392F
:10139000DB0013440A4692E8030083E8030007F5E4
:1013A000FB5303F114031B68013307F5FB5202F1F1
:1013B0001402136007F5FB5303F114031B68B3F524
:1013C0007A7F05DD002307F5FB5202F1140213605A
:1013D00007F11801043907F11803143B07F5FB5214
:1013E00002F1140212681846FFF73BFE07F11803DA
:1013F000143B1B68184600F0C1FF034607F5FA507E
:1014000000F11400054A142101F024F807F5FA53FD
:1014100003F114031846FFF775FD8FE7F02F000066
:10142000F0B58BB0044600F04BF8234B064693F919
:1014300000506B1C0AD02146204600F089FF074669
:1014400020B90021204600F05BFF10B930460BB0F8
:10145000F0BD0122194B2046CDE90023089700F08A
:10146000E9F90022CDE90401CDE902010023ADB183
:101470001046194600F060FB022DCDE906010FD1A0
:1014800000F0A2FF21230360089B7BB9DDE9060180
:1014900000F03AFC064630460BB0F0BDCDE906231D
:1014A000684600F061F80028EED1E9E700F08CFF13
:1014B000089B0360EAE700BF0C000020F42F000047
:1014C00020F00042B2F1FF4FF8B504463AD2C2B361
:1014D000002803463DDBB2F5000F4FEAE0500AD288
:1014E00014F4000201D03BE00A465B001C0202F14A
:1014F0000101F9D5801A0026C3F316037F3843F49F
:101500000002C1074FEA42034FF0190448BF93009D
:1015100031464FF0807247108D189D4202DC5B1BF4
:10152000A9181644013C4FEA43034FEA5202F3D193
:1015300013B1013626F00106701000F17C5000EB6B
:10154000C750F8BD014600F03DFD214600F032FCD9
:10155000F8BD014600F02CFC014600F0E7FDF8BDA7
:101560004FF0FF32C6E700BF0020704781F0004116
:1015700002E000BF83F0004330B54FEA41044FEA78
:10158000430594EA050F08BF90EA020F1FBF54EA13
:10159000000C55EA020C7FEA645C7FEA655C00F0AF
:1015A000E2804FEA5454D4EB5555B8BF6D420CDD80
:1015B0002C4480EA020281EA030382EA000083EA03
:1015C000010180EA020281EA0303362D88BF30BDA3
:1015D00011F0004F4FEA01314FF4801C4CEA1131F9
:1015E00002D0404261EB410113F0004F4FEA033358
:1015F0004CEA133302D0524263EB430394EA050FE3
:1016000000F0A780A4F10104D5F1200E0DDB02FA51
:101610000EFC22FA05F2801841F1000103FA0EF2E5
:10162000801843FA05F359410EE0A5F120050EF1AB
:10163000200E012A03FA0EFC28BF4CF0020C43FADC
:1016400005F3C01851EBE37101F0004507D54FF0E9
:10165000000EDCF1000C7EEB00006EEB0101B1F539
:10166000801F1BD3B1F5001F0CD349085FEA30007F
:101670004FEA3C0C04F101044FEA445212F5800F8A
:1016800080F09A80BCF1004F08BF5FEA500C50F127
:10169000000041EB045141EA050130BD5FEA4C0C0A
:1016A000404141EB010111F4801FA4F10104E9D193
:1016B00091F0000F04BF01460020B1FA81F308BF8A
:1016C0002033A3F10B03B3F120020CDA0C3208DD56
:1016D00002F1140CC2F10C0201FA0CF021FA02F131
:1016E0000CE002F11402D8BFC2F1200C01FA02F1A1
:1016F00020FA0CFCDCBF41EA0C019040E41AA2BFC6
:1017000001EB0451294330BD6FEA04041F3C1CDA8D
:101710000C340EDC04F11404C4F1200220FA04F0AD
:1017200001FA02F340EA030021FA04F345EA030157
:1017300030BDC4F10C04C4F1200220FA02F001FA19
:1017400004F340EA0300294630BD21FA04F029469B
:1017500030BD94F0000F83F4801306BF81F4801134
:101760000134013D4EE77FEA645C18BF7FEA655CA7
:1017700029D094EA050F08BF90EA020F05D054EA79
:10178000000C04BF1946104630BD91EA030F1EBF7E
:101790000021002030BD5FEA545C05D14000494182
:1017A00028BF41F0004130BD14F580043CBF01F575
:1017B000801130BD01F0004545F0FE4141F470015B
:1017C0004FF0000030BD7FEA645C1ABF1946104636
:1017D0007FEA655C1CBF0B46024650EA013406BF37
:1017E00052EA033591EA030F41F4002130BD00BFF6
:1017F00090F0000F04BF0021704730B54FF48064B3
:1018000004F132044FF000054FF0000150E700BF33
:1018100090F0000F04BF0021704730B54FF4806492
:1018200004F1320410F0004548BF40424FF000017F
:101830003EE700BF42004FEAE2014FEA31014FEAC2
:1018400002701FBF12F07F4393F07F4F81F0605111
:10185000704732F07F4208BF704793F07F4F04BF5C
:1018600041F40021704730B54FF4607401F0004539
:1018700021F000411CE700BF50EA010208BF704799
:1018800030B54FF000050AE050EA010208BF70478A
:1018900030B511F0004502D5404261EB41014FF4F3
:1018A000806404F132045FEA915C3FF4D8AE4FF0FB
:1018B00003025FEADC0C18BF03325FEADC0C18BFDE
:1018C000033202EBDC02C2F1200300FA03FC20FA2F
:1018D00002F001FA03FE40EA0E0021FA02F114447C
:1018E000BDE600BF70B54FF0FF0C4CF4E06C1CEA95
:1018F00011541DBF1CEA135594EA0C0F95EA0C0F06
:1019000000F0DEF82C4481EA030621EA4C5123EA78
:101910004C5350EA013518BF52EA033541F48011A7
:1019200043F4801338D0A0FB02CE4FF00005E1FB5A
:1019300002E506F00042E0FB03E54FF00006E1FBA4
:1019400003569CF0000F18BF4EF0010EA4F1FF04E7
:10195000B6F5007F64F5407404D25FEA4E0E6D4127
:1019600046EB060642EAC62141EA55514FEAC52038
:1019700040EA5E504FEACE2EB4F1FD0C88BFBCF5B4
:10198000E06F1ED8BEF1004F08BF5FEA500E50F165
:10199000000041EB045170BD06F0004646EA01012B
:1019A00040EA020081EA0301B4EB5C04C2BFD4EB5D
:1019B0000C0541EA045170BD41F480114FF0000E56
:1019C000013C00F3AB8014F1360FDEBF002001F0C4
:1019D000004170BDC4F10004203C35DA0C341BDC3E
:1019E00004F11404C4F1200500FA05F320FA04F010
:1019F00001FA05F240EA020001F0004221F0004144
:101A000010EBD37021FA04F642EB06015EEA430EB6
:101A100008BF20EAD37070BDC4F10C04C4F12005E6
:101A200000FA04F320FA05F001FA04F240EA020099
:101A300001F0004110EBD37041F100015EEA430E6A
:101A400008BF20EAD37070BDC4F1200500FA05F28A
:101A50004EEA020E20FA04F301FA05F243EA020309
:101A600021FA04F001F0004121FA04F220EA020018
:101A700000EBD3705EEA430E08BF20EAD37070BD5E
:101A800094F0000F0FD101F00046400041EB01013E
:101A900011F4801F08BF013CF7D041EA060195F020
:101AA000000F18BF704703F00046520043EB0303DA
:101AB00013F4801F08BF013DF7D043EA06037047C7
:101AC00094EA0C0F0CEA135518BF95EA0C0F0CD0D2
:101AD00050EA410618BF52EA4306D1D181EA030118
:101AE00001F000414FF0000070BD50EA410606BF12
:101AF0001046194652EA430619D094EA0C0F02D157
:101B000050EA013613D195EA0C0F05D152EA03369B
:101B10001CBF104619460AD181EA030101F00041B9
:101B200041F0FE4141F470014FF0000070BD41F002
:101B3000FE4141F4780170BD70B54FF0FF0C4CF4DC
:101B4000E06C1CEA11541DBF1CEA135594EA0C0FFB
:101B500095EA0C0F00F0A7F8A4EB050481EA030E48
:101B600052EA03354FEA013100F088804FEA03332F
:101B70004FF0805545EA131343EA12634FEA0222FD
:101B800045EA111545EA10654FEA00260EF00041BE
:101B90009D4208BF964244F1FD0404F5407402D210
:101BA0005B084FEA3202B61A65EB03055B084FEAA1
:101BB00032024FF480104FF4002CB6EB020E75EB9E
:101BC000030E22BFB61A754640EA0C005B084FEAC6
:101BD0003202B6EB020E75EB030E22BFB61A754643
:101BE00040EA5C005B084FEA3202B6EB020E75EB8E
:101BF000030E22BFB61A754640EA9C005B084FEA06
:101C00003202B6EB020E75EB030E22BFB61A754612
:101C100040EADC0055EA060E18D04FEA051545EA01
:101C200016754FEA06164FEAC30343EA52734FEAAA
:101C3000C2025FEA1C1CC0D111F4801F0BD141EA23
:101C400000014FF000004FF0004CB6E711F4801F88
:101C500004BF01430020B4F1FD0C88BFBCF5E06F68
:101C60003FF6AFAEB5EB030C04BFB6EB020C5FEA78
:101C7000500C50F1000041EB045170BD0EF0004ECD
:101C80004EEA113114EB5C04C2BFD4EB0C0541EAFF
:101C9000045170BD41F480114FF0000E013C90E6FC
:101CA00045EA060E8DE60CEA135594EA0C0F08BFC0
:101CB00095EA0C0F3FF43BAF94EA0C0F0AD150EABF
:101CC00001347FF434AF95EA0C0F7FF425AF104652
:101CD00019462CE795EA0C0F06D152EA03353FF47A
:101CE000FDAE1046194622E750EA410618BF52EAF7
:101CF00043067FF4C5AE50EA41047FF40DAF52EACB
:101D000043057FF4EBAE12E74FEA4102B2F1E04344
:101D100024BFB3F5001CDCF1FE5C0DD901F0004CD2
:101D20004FEAC0024CEA5070B2F1004F40EB830022
:101D300008BF20F00100704711F0804F21D113F14E
:101D40003872BCBF01F00040704741F480114FEA87
:101D50005252C2F11802C2F1200C10FA0CF320FA10
:101D600002F018BF40F001004FEAC1234FEAD3232D
:101D700003FA0CFC40EA0C0023FA02F34FEA430397
:101D8000CCE77FEA625307D150EA01331EBF4FF020
:101D9000FE4040F44000704701F0004040F0FE403B
:101DA00040F40000704700BF80F0004002E000BF38
:101DB00081F0004142001FBF5FEA410392EA030F36
:101DC0007FEA226C7FEA236C6AD04FEA1262D2EB80
:101DD0001363C1BFD218414048404140B8BF5B4285
:101DE000192B88BF704710F0004F40F4000020F01E
:101DF0007F4018BF404211F0004F41F4000121F034
:101E00007F4118BF494292EA030F3FD0A2F101027D
:101E100041FA03FC10EB0C00C3F1200301FA03F1BB
:101E200000F0004302D5494260EB4000B0F5000FDE
:101E300013D3B0F1807F06D340084FEA310102F19D
:101E40000102FE2A51D2B1F1004F40EBC25008BF4F
:101E500020F0010040EA03007047490040EB000019
:101E600010F4000FA2F10102EDD1B0FA80FCACF148
:101E7000080CB2EB0C0200FA0CF0AABF00EBC25047
:101E800052421843BCBFD0401843704792F0000F35
:101E900081F4000106BF80F400000132013BB5E788
:101EA0004FEA41037FEA226C18BF7FEA236C21D0FE
:101EB00092EA030F04D092F0000F08BF0846704763
:101EC00090EA010F1CBF0020704712F07F4F04D131
:101ED000400028BF40F00040704712F100723CBF44
:101EE00000F50000704700F0004343F0FE4040F46E
:101EF000000070477FEA226216BF08467FEA23632C
:101F00000146420206BF5FEA412390EA010F40F416
:101F1000800070474FF0000304E000BF10F0004362
:101F200048BF40425FEA000C08BF704743F0964349
:101F300001464FF000001CE050EA010208BF704764
:101F40004FF000030AE000BF50EA010208BF7047EB
:101F500011F0004302D5404261EB41015FEA010C00
:101F600002BF84460146002043F0B64308BFA3F1F8
:101F70008053A3F50003BCFA8CF2083AA3EBC253DA
:101F800010DB01FA02FC634400FA02FCC2F12002F9
:101F9000BCF1004F20FA02F243EB020008BF20F030
:101FA0000100704702F1200201FA02FCC2F1200296
:101FB00050EA4C0021FA02F243EB020008BF20EA8B
:101FC000DC7070474FF0FF0C1CEAD0521EBF1CEAB9
:101FD000D15392EA0C0F93EA0C0F6FD01A4480EAA7
:101FE000010C400218BF5FEA41211ED04FF0006390
:101FF00043EA501043EA5111A0FB01310CF00040BC
:10200000B1F5000F3EBF490041EAD3715B0040EAE1
:10201000010062F17F02FD2A1DD8B3F1004F40EBB1
:10202000C25008BF20F00100704790F0000F0CF084
:10203000004C08BF49024CEA502040EA51207F3A48
:10204000C2BFD2F1FF0340EAC250704740F4000023
:102050004FF00003013A5DDC12F1190FDCBF00F014
:1020600000407047C2F10002410021FA02F1C2F1C2
:10207000200200FA02FC5FEA310040F1000053EA5E
:102080004C0308BF20EADC70704792F0000F00F0AC
:10209000004C02BF400010F4000F013AF9D040EAB2
:1020A0000C0093F0000F01F0004C02BF490011F446
:1020B000000F013BF9D041EA0C018FE70CEAD15344
:1020C00092EA0C0F18BF93EA0C0F0AD030F0004CC4
:1020D00018BF31F0004CD8D180EA010000F0004078
:1020E000704790F0000F17BF90F0004F084691F036
:1020F000000F91F0004F14D092EA0C0F01D1420270
:102100000FD193EA0C0F03D14B0218BF084608D138
:1021100080EA010000F0004040F0FE4040F4000082
:10212000704740F0FE4040F4400070474FF0FF0C15
:102130001CEAD0521EBF1CEAD15392EA0C0F93EA5C
:102140000C0F69D0A2EB030280EA010C49024FEAAE
:10215000402037D04FF0805343EA111143EA101367
:102160000CF000408B4238BF5B0042F17D024FF41F
:10217000000C8B4224BF5B1A40EA0C00B3EB510FFA
:1021800024BFA3EB510340EA5C00B3EB910F24BFE3
:10219000A3EB910340EA9C00B3EBD10F24BFA3EB68
:1021A000D10340EADC001B0118BF5FEA1C1CE0D130
:1021B000FD2A3FF650AF8B4240EBC25008BF20F0E3
:1021C000010070470CF0004C4CEA50207F32C2BF37
:1021D000D2F1FF0340EAC250704740F400004FF0D4
:1021E0000003013A37E792F0000F00F0004C02BF05
:1021F000400010F4000F013AF9D040EA0C0093F0CF
:10220000000F01F0004C02BF490011F4000F013B28
:10221000F9D041EA0C0195E70CEAD15392EA0C0F90
:1022200008D142027FF47DAF93EA0C0F7FF470AFC8
:10223000084676E793EA0C0F04D14B023FF44CAF0B
:1022400008466EE730F0004C18BF31F0004CCAD1A0
:1022500030F000427FF45CAF31F000437FF43CAFDC
:102260005FE700BF4FF0FF3C06E000BF4FF0010CFE
:1022700002E000BF4FF0010C4DF804CD4FEA4002E0
:102280004FEA41037FEA226C18BF7FEA236C11D02A
:1022900001B052EA530C18BF90EA010F58BFB2EBDD
:1022A000030088BFC81738BF6FEAE17018BF40F05D
:1022B000010070477FEA226C02D15FEA402C05D111
:1022C0007FEA236CE4D15FEA412CE1D05DF8040B96
:1022D000704700BF844608466146FFE70FB5FFF729
:1022E000C9FF002848BF10F1000F0FBD4DF808EDE1
:1022F000FFF7F4FF0CBF012000205DF808FB00BFD2
:102300004DF808EDFFF7EAFF34BF012000205DF82B
:1023100008FB00BF4DF808EDFFF7E0FF94BF012078
:1023200000205DF808FB00BF4DF808EDFFF7D2FF75
:1023300094BF012000205DF808FB00BF4DF808EDB8
:10234000FFF7C8FF34BF012000205DF808FB00BF85
:102350004FEA40024FEA41037FEA226C02D15FEA72
:10236000402C08D17FEA236C02D15FEA412C02D1D4
:102370004FF0000070474FF0010070474FEA4002F5
:10238000B2F1FE4F0FD34FF09E03B3EB12620DD9A3
:102390004FEA002343F0004310F0004F23FA02F00D
:1023A00018BF404270474FF00000704712F1610FB4
:1023B00001D1420205D110F0004008BF6FF000408B
:1023C00070474FF000007047014B1868704700BF1E
:1023D0001000002008B5074B044613B10021AFF3ED
:1023E0000080054B1868836A03B19847204600F0C7
:1023F0006BFC00BF00000000FC2F000070B5002542
:102400000C4E0D4CA41BA410A54209D100F05EFC9B
:1024100000250A4E0A4CA41BA410A54205D170BD8C
:1024200056F8253098470135EEE756F8253098479D
:102430000135F2E7740000207400002074000020D1
:102440007800002003460244934200D1704703F80D
:10245000011BF9E70CB430B5174B0C1E9DB01D687D
:1024600008DA8B234FF0FF302B601DB0BDE8304001
:1024700002B070474FF40273ADF814300CBF23461E
:1024800004F1FF33049307934FF6FF730290069015
:10249000ADF81630209A21AB02A92846019300F02E
:1024A0006FF8431CBCBF8B232B60002CDDD00022B7
:1024B000029B1A70D9E700BF10000020034613F8F2
:1024C000012B002AFBD1181A013870472DE9F0477B
:1024D0008E6882469E420C469046994637D88A8935
:1024E00012F4906F31D00223256809696F1A65696B
:1024F00005EB450595FBF3F509F101033B449D42CE
:1025000038BF1D46530530D5294600F035FB064639
:1025100050B90C234FF0FF30CAF80030A38943F0C4
:102520004003A381BDE8F0873A46216900F0B4FA80
:10253000A38923F4906343F08003A38126613E4482
:1025400026604E466561ED1BA5604E4500D94E469E
:1025500032464146206800F0AAFAA36800209B1B7F
:10256000A36023681E442660DCE72A4600F05EFB79
:1025700006460028E2D12169504600F0B1FAC8E7CA
:102580002DE9F04F9DB003938B8980461D060C46C4
:1025900016460FD50B696BB9402100F0EDFA2060AB
:1025A000206128B90C23C8F800304FF0FF30C7E095
:1025B000402363610023099320238DF829303023C1
:1025C0004FF0010B8DF82A3037463D4615F8013B98
:1025D0000BB1252B3ED1B7EB060A0BD05346324642
:1025E00021464046FFF772FF013000F0A480099BAE
:1025F000534409933B78002B00F09D8000234FF05B
:10260000FF32CDE90523049307938DF853301A93D5
:102610002F46052217F8011B4F4800F02FFA049BA4
:10262000D0B9D90644BF20228DF853201A0744BFE1
:102630002B228DF853202A782A2A15D02F460020E5
:102640000A25079A394611F8013B303B092B4DD931
:10265000B8B10FE02F46B8E73F4A3D46801A0BFA63
:1026600000F018430490D3E7039A111D12680391F8
:10267000002A01DB079204E0524243F00203079272
:1026800004933B782E2B0CD17B782A2B33D1039BE0
:1026900002371A1D1B680392002BB8BF4FF0FF339F
:1026A00005932E4D03223978284600F0E7F938B11A
:1026B0004023401B03FA00F0049B013703430493BB
:1026C0003978062226487E1C8DF8281000F0D6F9AD
:1026D000002838D0234B13BB039B073323F0070399
:1026E00008330393099B4B4409936DE705FB0232C2
:1026F00001200F46A6E700230A2519460137059356
:10270000384610F8012B303A092A03D9002BC8D0DB
:102710000591C6E705FB012101230746F0E703AB5E
:1027200000932246104B04A94046AFF30080B0F15D
:10273000FF3F8146D6D1A3895B063FF536AF0998A6
:102740001DB0BDE8F08F03AB00932246064B04A9F1
:10275000404600F081F8EAE7003000000630000053
:102760000A30000000000000CD2400002DE9F047F1
:1027700091461F468A680B6906469342B8BF1346C6
:10278000C9F8003091F843200C46DDF8208012B1E2
:102790000133C9F800302368990642BFD9F80030E8
:1027A0000233C9F80030256815F0060507D104F199
:1027B000190AE368D9F800209B1AAB4229DC94F887
:1027C00043302268003318BF012392062ED404F14F
:1027D000430239463046C047013021D02368E568BE
:1027E00003F00603042B18BF0025D9F800204FF092
:1027F000000908BFAD1AA368226908BF25EAE5757C
:102800009342C4BF9B1AED181A344D451AD10020CB
:1028100008E00123524639463046C047013003D113
:102820004FF0FF30BDE8F0870135C2E73020E118F6
:1028300081F843005A1C94F845102244023382F870
:102840004310C4E70123224639463046C0470130D1
:10285000E6D009F10109D8E72DE9F04301F1430C75
:102860000C46097E85B06E291746064698460C9A96
:1028700000F0B38022D8632936D00AD8002900F0AE
:10288000B980582900F0838004F1420584F8421091
:1028900032E0642901D06929F6D120681368050661
:1028A00003F104012AD51B681160002B03DA2D22E5
:1028B0005B4284F843206F480A2239E0732900F014
:1028C0009D8008D86F2920D07029DDD1236843F07E
:1028D0002003236003E0752917D07829D4D1782309
:1028E000654884F8453055E0136804F14205191D28
:1028F0001B68116084F8423001238CE01B6810F0E3
:10290000400F116018BF1BB2CFE713682568181D70
:102910001060280601D51B6802E06806FBD51B88FD
:102920006F2914BF0A2208225248002184F843105C
:102930006568002DA560C0F29580216821F0040132
:102940002160002B3DD1002D40F08E806546082A85
:102950000BD12368DB0708D5236962689A42DEBF82
:10296000302305F8013C05F1FF35ACEB050323618D
:10297000CDF800803B4603AA21463046FFF7F6FE1D
:1029800001304DD14FF0FF3005B0BDE8F08339483C
:1029900084F84510136821681D1D1B6815600A0620
:1029A0000BD5CA0744BF41F0200121601BB9226842
:1029B00022F0200222601022B7E74D0648BF9BB2EA
:1029C000EFE76546B3FBF2F102FB1133C35C05F898
:1029D000013D0B460029F5D1B9E713682568181D9C
:1029E0006169106028061B6801D5196002E06A065B
:1029F000FBD51980002365462361B9E71368191DCB
:102A000011601D6862680021284600F037F808B19F
:102A1000401B606063682361002384F84330A7E7AC
:102A200023692A4639463046C0470130AAD0236878
:102A30009B0713D4E068039B9842B8BF1846A3E7EE
:102A400001234A4639463046C04701309AD0013505
:102A5000E368039A9B1AAB42F2DCEBE7002504F132
:102A60001909F5E7002BACD1037804F1420584F88D
:102A700042306CE7113000002230000010B5C9B2BE
:102A800002449042034601D1002303E01C78013048
:102A90008C42F6D1184610BD10B5431E0A4491422F
:102AA00000D110BD11F8014B03F8014FF7E7884240
:102AB00010B501EB020307D8421E99420AD011F863
:102AC000014B02F8014FF8E78342F5D98118D21A79
:102AD000D34200D110BD13F8014D01F8014DF7E7C5
:102AE00038B50546002943D051F8043C0C1F002B93
:102AF000B8BFE41800F0D0F81E4A1368104633B986
:102B0000636014602846BDE8384000F0C6B8A342B0
:102B10000BD921686218934201BF1A685B6852188A
:102B2000226063600460EDE713465A680AB1A2426E
:102B3000FAD919685818A0420BD1206801445818D6
:102B400082421960DED110685268014419605A60EF
:102B5000D8E702D90C232B60D4E7206821188A42D9
:102B600001BF116852680918216062605C60C9E7A2
:102B700038BD00BF9800002070B5CD1C25F00305BE
:102B800008350C2D38BF0C25002D064601DBA94267
:102B900003D90C233360002070BD00F07DF8214A7A
:102BA0001468214691B9204C23681BB9304600F0C7
:102BB00063F820602946304600F05EF8431C24D1BB
:102BC0000C233046336000F068F8E4E70B685B1BC9
:102BD00018D40B2B0FD90B60CC18CD50304600F019
:102BE0005CF804F10B00231D20F00700C31AD3D0BA
:102BF0005A42E250D0E74B688C4216BF63601360C4
:102C00000C46EBE70C464968CCE7C41C24F00304EF
:102C1000A04205D0211A304600F02EF80130CFD066
:102C20002560DBE7980000209C000020F8B50746EF
:102C300014460E4621B9BDE8F8401146FFF79CBF87
:102C400022B9FFF74DFF25462846F8BD00F026F8CB
:102C5000A0420FD221463846FFF78EFF05460028D6
:102C6000F2D031462246FFF717FF31463846FFF7CC
:102C700037FFE9E73546E7E738B50023054C054659
:102C80000846236000F012F8431C02D1236803B108
:102C90002B6038BDA40000207047704751F8043CF9
:102CA000181F002BBCBF0B58C0187047044A0549B9
:102CB0001368002B08BF0B46184410601846704775
:102CC000A0000020A8000020FEE700BFF8B500BF6C
:102CD000F8BC08BC9E467047F8B500BFF8BC08BCFD
:102CE0009E46704703030100010302020203020033
:102CF00001010A0C0C0A0909090A0B0B0C0B0B0A3F
:102D000003030100010302020203020001010E108D
:102D1000100E0D0D0D0E0F0F100F0F0E03030100FF
:102D20000103020202030200010112141412111124
:102D300011121313141313120303010001030202EF
:102D4000020302000101161818161515151617179B
:102D50001817171603030100010302020203020001
:102D6000010119060619070707191A1A061A1A196E
:102D700003030100010302020203020001011B041C
:102D8000041B0505051B1C1C041C1C1B0303010064
:102D9000010302020203020001011D02021D0303DE
:102DA000031D1E1E021E1E1D030201000103021F41
:102DB0001F1F1F20202003020100010302212121E7
:102DC00021232323030201000103022424242425B8
:102DD0002525030201000103022626262627272790
:102DE00001020102030101000000000000000000D8
:102DF00000000001020304050607000000000C119A
:102E0000140D03030302020202030A0C09090C0A4F
:102E10000B0B03030302020203020E100D0D100F31
:102E20000F0E030303020202020312141111141203
:102E300013130303030202020302161815151817D1
:102E400017160303030202020203190607070619F5
:102E50001A1A03030302020203021B040505041CE1
:102E60001C1B03030302020202031D020303021DD3
:102E70001E1E01000102020001010C0A09090C0BCF
:102E80000B0A0100010202000101100E0D0D100FCE
:102E90000F0E01000102020001011412111114139E
:102EA000131201000102020001011816151518176E
:102EB0001716010001020200010106190707061A90
:102EC0001A190100010202000101041B0505041C7E
:102ED0001C1B0100010202000101021D0303021E6E
:102EE0001E1D00000000001180020000000002060C
:102EF0000000200039000F000000401500204004B1
:102F0000001000223F0006005B044F0466046D04BD
:102F10007D0407007F046F0400000000000A000029
:102F200080200000FFFF7704790A3900B020790083
:102F300071007D04760406000E00700A3800B602A7
:102F4000B6083F0073043F08730C6D0401113E0086
:102F500030223628802A6E040922390080080F00AA
:102F600001000800000158107C0458005E0458203D
:102F700071040C0C740404000E00700C380054141E
:102F800054045C04730467045004080C78001C00AB
:102F900010201428802A0C08482000000103080093
:102FA00000000000000000004F7672666C6F770032
:102FB000000000000100000001000000020000000D
:102FC00001000000020000000200000003000000F9
:102FD00001000000020000000200000003000000E9
:102FE00002000000030000000300000004000000D5
:102FF00025640000737172746600000014000020E4
:10300000232D302B2000686C4C00656667454647D1
:103010000030313233343536373839414243444554
:1030200046003031323334353637383961626364C3
:083030006566000000000000CD
:08303800C4D0FF7F010000007D
:103040000048E80100800000809FD50001000000DA
:10305000140000200000000000000000000000003C
:103060000000000000000000000000000000000060
:103070000000000000000000000000000000000050
:103080000000000000000000000000000000000040
:103090000000000000000000000000000000000030
:1030A0000000000000000000000000000000000020
:0C30B00000000000E1000000BD00000076
:040000030000017187
:00000001FF
