S0110000756C747261736F6E69632E7333379F
S113000000400020710100009D0100009D010000DE
S11300109D0100009D0100009D0100009D01000064
S11300209D0100009D0100009D0100009D01000054
S11300309D0100009D0100009D0100009D01000044
S11300409D0100009D0100009D0100009D01000034
S11300509D0100009D0100009D0100009D01000024
S11300609D0100009D0100009D0100009D01000014
S11300709D0100009D0100009D0100009D01000004
S11300809D0100009D0100009D0100009D010000F4
S11300909D0100009D0100009D0100009D010000E4
S11300A09D0100009D0100009D0100009D010000D4
S11300B09D0100009D0100009D01000010B5054C4C
S11300C0237833B9044B13B10448AFF30080012300
S11300D0237010BD70000020000000001C240000EC
S11300E008B5034B1BB103490348AFF3008008BDB7
S11300F000000000740000201C240000154B002B9D
S113010008BF134B9D46A3F5803A00218B460F464A
S11301101348144A121A01F0E7F90F4B002B00D0D0
S113012098470E4B002B00D0984700200021040074
S11301300D000D48002802D00C48AFF3008001F0F8
S1130140AFF92000290000F087F901F095F900BF0C
S11301500000080000400020000000000000000033
S1130160700000209C00002000000000000000003F
S1130170064880470649074A074B9A42BEBF51F8D2
S1130180040B42F8040BF8E7FFF7B8FFA1010000E5
S1130190282400000000002070000020FEE700BFBB
S11301A080B400AF034B044A9A6000BFBD4680BCD4
S11301B0704700BF00ED00E00000000090B585B07E
S11301C000AFF860B9607A60B968B86800F072FF8F
S11301D003464FF08341184600F064FE03461C4674
S11301E07968786800F066FF03461946204600F0F7
S11301F057FE03464FF08241184601F00FF80346BC
S11302001A46FB681A60B968B86800F053FF0346E1
S11302101C46FB681A68FB681B681946104600F008
S113022049FF03461946204600F03AFE03461846A5
S113023000F06EF90246FB685A6000BF1437BD46F1
S113024090BDB0B590B000AFF860B9607A604FF07F
S11302500003BB634FF00003FB6300237B6218E0E1
S11302607B6ADB00BA6813441B681946B86B00F05C
S113027019FE0346BB637B6ADB00BA6813445B6800
S11302801946F86B00F00EFE0346FB637B6A0133EC
S11302907B627A6A7B689A42E2DB786800F0B6FE99
S11302A003461946B86B00F0B9FF0346BB63786890
S11302B000F0ACFE03461946F86B00F0AFFF0346AE
S11302C0FB6378686B461D46431E3B620346194632
S11302D04FF000024FF000034FF00004540144EAD1
S11302E0D1644B01034619464FF000024FF000035E
S11302F04FF00004540144EAD1644B0103469B00CF
S113030003330733DB08DB00ADEB030D6B4603332C
S11303109B089B00FB617868431EBB61034619463A
S11303204FF000024FF000034FF00004540144EA80
S1130330D1644B01034619464FF000024FF000030D
S11303404FF00004540144EAD1644B0103469B007E
S113035003330733DB08DB00ADEB030D6B460333DC
S11303609B089B007B610023BB6220E0BB6ADB002F
S1130370BA6813441B68B96B184600F091FD034634
S11303801946FB69BA6A43F82210BB6ADB00BA68F3
S113039013445B68F96B184600F082FD0346194666
S11303A07B69BA6A43F82210BB6A0133BB62BA6A3A
S11303B07B689A42DADB4FF00003FB624FF00003E4
S11303C03B6300237B6326E0FB697A6B53F82200CE
S11303D07B697A6B53F82230194600F06BFE0346B2
S11303E01946F86A00F05EFD0346FB62FB697A6B0E
S11303F053F82200FB697A6B53F82230194600F057
S113040059FE03461946386B00F04CFD03463B6326
S11304107B6B01337B637A6B7B689A42D4DB396BE9
S1130420F86A00F0FBFE03461A46FB681A60FB6894
S11304301B68B96B184600F03DFE03461946F86B7D
S113044000F02EFD03461A46FB685A60AD4600BF15
S11304504037BD46B0BD0000F0B58DB002AF07F126
S113046018037B62254800F053F803461A462449D2
S1130470786AFFF7A3FE7B6A1B68184600F052FAFD
S113048003460C461A4623461E4801F035F87B6A9B
S11304905B68184600F046FA03460C461A462346A3
S11304A0184801F029F807F110033B624FF07E531E
S11304B03B60134B7B604FF08043BB60124BFB608F
S11304C03B4602221946386AFFF7BBFE3B691846D1
S11304D000F028FA05460E467B69184600F022FA19
S11304E003460C46CDE900342A463346074801F05A
S11304F003F8002318462C37BD46F0BD00008242A5
S11305000000A040682300000000E0406C230000CD
S1130510F0B58BB0044600F04BF8234B064693F934
S113052000506B1C0AD02146204600F089FF074684
S113053020B90021204600F05BFF10B930460BB013
S1130540F0BD0122194B2046CDE90023089700F0A5
S1130550E9F90022CDE90401CDE902010023ADB19E
S11305601046194600F060FB022DCDE906010FD1BB
S113057000F07CFF21230360089B7BB9DDE90601C1
S113058000F03AFC064630460BB0F0BDCDE9062338
S1130590684600F061F80028EED1E9E700F066FF54
S11305A0089B0360EAE700BF000000207C230000F2
S11305B020F00042B2F1FF4FF8B504463AD2C2B37C
S11305C0002803463DDBB2F5000F4FEAE0500AD2A3
S11305D014F4000201D03BE00A465B001C0202F165
S11305E00101F9D5801A0026C3F316037F3843F4BA
S11305F00002C1074FEA42034FF0190448BF9300B9
S113060031464FF0807247108D189D4202DC5B1B0F
S1130610A9181644013C4FEA43034FEA5202F3D1AE
S113062013B1013626F00106701000F17C5000EB86
S1130630C750F8BD014600F03DFD214600F032FCF4
S1130640F8BD014600F02CFC014600F0E7FDF8BDC2
S11306504FF0FF32C6E700BF0020704781F0004131
S113066002E000BF83F0004330B54FEA41044FEA93
S1130670430594EA050F08BF90EA020F1FBF54EA2E
S1130680000C55EA020C7FEA645C7FEA655C00F0CA
S1130690E2804FEA5454D4EB5555B8BF6D420CDD9B
S11306A02C4480EA020281EA030382EA000083EA1E
S11306B0010180EA020281EA0303362D88BF30BDBE
S11306C011F0004F4FEA01314FF4801C4CEA113114
S11306D002D0404261EB410113F0004F4FEA033373
S11306E04CEA133302D0524263EB430394EA050FFE
S11306F000F0A780A4F10104D5F1200E0DDB02FA6D
S11307000EFC22FA05F2801841F1000103FA0EF200
S1130710801843FA05F359410EE0A5F120050EF1C6
S1130720200E012A03FA0EFC28BF4CF0020C43FAF7
S113073005F3C01851EBE37101F0004507D54FF004
S1130740000EDCF1000C7EEB00006EEB0101B1F554
S1130750801F1BD3B1F5001F0CD349085FEA30009A
S11307604FEA3C0C04F101044FEA445212F5800FA5
S113077080F09A80BCF1004F08BF5FEA500C50F142
S1130780000041EB045141EA050130BD5FEA4C0C25
S1130790404141EB010111F4801FA4F10104E9D1AE
S11307A091F0000F04BF01460020B1FA81F308BFA5
S11307B02033A3F10B03B3F120020CDA0C3208DD71
S11307C002F1140CC2F10C0201FA0CF021FA02F14C
S11307D00CE002F11402D8BFC2F1200C01FA02F1BC
S11307E020FA0CFCDCBF41EA0C019040E41AA2BFE1
S11307F001EB0451294330BD6FEA04041F3C1CDAA9
S11308000C340EDC04F11404C4F1200220FA04F0C8
S113081001FA02F340EA030021FA04F345EA030172
S113082030BDC4F10C04C4F1200220FA02F001FA34
S113083004F340EA0300294630BD21FA04F02946B6
S113084030BD94F0000F83F4801306BF81F480114F
S11308500134013D4EE77FEA645C18BF7FEA655CC2
S113086029D094EA050F08BF90EA020F05D054EA94
S1130870000C04BF1946104630BD91EA030F1EBF99
S11308800021002030BD5FEA545C05D1400049419D
S113089028BF41F0004130BD14F580043CBF01F590
S11308A0801130BD01F0004545F0FE4141F4700176
S11308B04FF0000030BD7FEA645C1ABF1946104651
S11308C07FEA655C1CBF0B46024650EA013406BF52
S11308D052EA033591EA030F41F4002130BD00BF11
S11308E090F0000F04BF0021704730B54FF48064CE
S11308F004F132044FF000054FF0000150E700BF4F
S113090090F0000F04BF0021704730B54FF48064AD
S113091004F1320410F0004548BF40424FF000019A
S11309203EE700BF42004FEAE2014FEA31014FEADD
S113093002701FBF12F07F4393F07F4F81F060512C
S1130940704732F07F4208BF704793F07F4F04BF77
S113095041F40021704730B54FF4607401F0004554
S113096021F000411CE700BF50EA010208BF7047B4
S113097030B54FF000050AE050EA010208BF7047A5
S113098030B511F0004502D5404261EB41014FF40E
S1130990806404F132045FEA915C3FF4D8AE4FF016
S11309A003025FEADC0C18BF03325FEADC0C18BFF9
S11309B0033202EBDC02C2F1200300FA03FC20FA4A
S11309C002F001FA03FE40EA0E0021FA02F1144497
S11309D0BDE600BF70B54FF0FF0C4CF4E06C1CEAB0
S11309E011541DBF1CEA135594EA0C0F95EA0C0F21
S11309F000F0DEF82C4481EA030621EA4C5123EA94
S1130A004C5350EA013518BF52EA033541F48011C2
S1130A1043F4801338D0A0FB02CE4FF00005E1FB75
S1130A2002E506F00042E0FB03E54FF00006E1FBBF
S1130A3003569CF0000F18BF4EF0010EA4F1FF0402
S1130A40B6F5007F64F5407404D25FEA4E0E6D4142
S1130A5046EB060642EAC62141EA55514FEAC52053
S1130A6040EA5E504FEACE2EB4F1FD0C88BFBCF5CF
S1130A70E06F1ED8BEF1004F08BF5FEA500E50F180
S1130A80000041EB045170BD06F0004646EA010146
S1130A9040EA020081EA0301B4EB5C04C2BFD4EB78
S1130AA00C0541EA045170BD41F480114FF0000E71
S1130AB0013C00F3AB8014F1360FDEBF002001F0DF
S1130AC0004170BDC4F10004203C35DA0C341BDC59
S1130AD004F11404C4F1200500FA05F320FA04F02B
S1130AE001FA05F240EA020001F0004221F000415F
S1130AF010EBD37021FA04F642EB06015EEA430ED2
S1130B0008BF20EAD37070BDC4F10C04C4F1200501
S1130B1000FA04F320FA05F001FA04F240EA0200B4
S1130B2001F0004110EBD37041F100015EEA430E85
S1130B3008BF20EAD37070BDC4F1200500FA05F2A5
S1130B404EEA020E20FA04F301FA05F243EA020324
S1130B5021FA04F001F0004121FA04F220EA020033
S1130B6000EBD3705EEA430E08BF20EAD37070BD79
S1130B7094F0000F0FD101F00046400041EB010159
S1130B8011F4801F08BF013CF7D041EA060195F03B
S1130B90000F18BF704703F00046520043EB0303F5
S1130BA013F4801F08BF013DF7D043EA06037047E2
S1130BB094EA0C0F0CEA135518BF95EA0C0F0CD0ED
S1130BC050EA410618BF52EA4306D1D181EA030133
S1130BD001F000414FF0000070BD50EA410606BF2D
S1130BE01046194652EA430619D094EA0C0F02D172
S1130BF050EA013613D195EA0C0F05D152EA0336B7
S1130C001CBF104619460AD181EA030101F00041D4
S1130C1041F0FE4141F470014FF0000070BD41F01D
S1130C20FE4141F4780170BD70B54FF0FF0C4CF4F7
S1130C30E06C1CEA11541DBF1CEA135594EA0C0F16
S1130C4095EA0C0F00F0A7F8A4EB050481EA030E63
S1130C5052EA03354FEA013100F088804FEA03334A
S1130C604FF0805545EA131343EA12634FEA022218
S1130C7045EA111545EA10654FEA00260EF00041D9
S1130C809D4208BF964244F1FD0404F5407402D22B
S1130C905B084FEA3202B61A65EB03055B084FEABC
S1130CA032024FF480104FF4002CB6EB020E75EBB9
S1130CB0030E22BFB61A754640EA0C005B084FEAE1
S1130CC03202B6EB020E75EB030E22BFB61A75465E
S1130CD040EA5C005B084FEA3202B6EB020E75EBA9
S1130CE0030E22BFB61A754640EA9C005B084FEA21
S1130CF03202B6EB020E75EB030E22BFB61A75462E
S1130D0040EADC0055EA060E18D04FEA051545EA1C
S1130D1016754FEA06164FEAC30343EA52734FEAC5
S1130D20C2025FEA1C1CC0D111F4801F0BD141EA3E
S1130D3000014FF000004FF0004CB6E711F4801FA3
S1130D4004BF01430020B4F1FD0C88BFBCF5E06F83
S1130D503FF6AFAEB5EB030C04BFB6EB020C5FEA93
S1130D60500C50F1000041EB045170BD0EF0004EE8
S1130D704EEA113114EB5C04C2BFD4EB0C0541EA1A
S1130D80045170BD41F480114FF0000E013C90E617
S1130D9045EA060E8DE60CEA135594EA0C0F08BFDB
S1130DA095EA0C0F3FF43BAF94EA0C0F0AD150EADA
S1130DB001347FF434AF95EA0C0F7FF425AF10466D
S1130DC019462CE795EA0C0F06D152EA03353FF495
S1130DD0FDAE1046194622E750EA410618BF52EA12
S1130DE043067FF4C5AE50EA41047FF40DAF52EAE6
S1130DF043057FF4EBAE12E74FEA4102B2F1E04360
S1130E0024BFB3F5001CDCF1FE5C0DD901F0004CED
S1130E104FEAC0024CEA5070B2F1004F40EB83003D
S1130E2008BF20F00100704711F0804F21D113F169
S1130E303872BCBF01F00040704741F480114FEAA2
S1130E405252C2F11802C2F1200C10FA0CF320FA2B
S1130E5002F018BF40F001004FEAC1234FEAD32348
S1130E6003FA0CFC40EA0C0023FA02F34FEA4303B2
S1130E70CCE77FEA625307D150EA01331EBF4FF03B
S1130E80FE4040F44000704701F0004040F0FE4056
S1130E9040F40000704700BF80F0004002E000BF53
S1130EA081F0004142001FBF5FEA410392EA030F51
S1130EB07FEA226C7FEA236C6AD04FEA1262D2EB9B
S1130EC01363C1BFD218414048404140B8BF5B42A0
S1130ED0192B88BF704710F0004F40F4000020F039
S1130EE07F4018BF404211F0004F41F4000121F04F
S1130EF07F4118BF494292EA030F3FD0A2F1010299
S1130F0041FA03FC10EB0C00C3F1200301FA03F1D6
S1130F1000F0004302D5494260EB4000B0F5000FF9
S1130F2013D3B0F1807F06D340084FEA310102F1B8
S1130F300102FE2A51D2B1F1004F40EBC25008BF6A
S1130F4020F0010040EA03007047490040EB000034
S1130F5010F4000FA2F10102EDD1B0FA80FCACF163
S1130F60080CB2EB0C0200FA0CF0AABF00EBC25062
S1130F7052421843BCBFD0401843704792F0000F50
S1130F8081F4000106BF80F400000132013BB5E7A3
S1130F904FEA41037FEA226C18BF7FEA236C21D019
S1130FA092EA030F04D092F0000F08BF084670477E
S1130FB090EA010F1CBF0020704712F07F4F04D14C
S1130FC0400028BF40F00040704712F100723CBF5F
S1130FD000F50000704700F0004343F0FE4040F489
S1130FE0000070477FEA226216BF08467FEA236347
S1130FF00146420206BF5FEA412390EA010F40F432
S1131000800070474FF0000304E000BF10F000437D
S113101048BF40425FEA000C08BF704743F0964364
S113102001464FF000001CE050EA010208BF70477F
S11310304FF000030AE000BF50EA010208BF704706
S113104011F0004302D5404261EB41015FEA010C1B
S113105002BF84460146002043F0B64308BFA3F113
S11310608053A3F50003BCFA8CF2083AA3EBC253F5
S113107010DB01FA02FC634400FA02FCC2F1200214
S1131080BCF1004F20FA02F243EB020008BF20F04B
S11310900100704702F1200201FA02FCC2F12002B1
S11310A050EA4C0021FA02F243EB020008BF20EAA6
S11310B0DC7070474FF0FF0C1CEAD0521EBF1CEAD4
S11310C0D15392EA0C0F93EA0C0F6FD01A4480EAC2
S11310D0010C400218BF5FEA41211ED04FF00063AB
S11310E043EA501043EA5111A0FB01310CF00040D7
S11310F0B1F5000F3EBF490041EAD3715B0040EAFD
S1131100010062F17F02FD2A1DD8B3F1004F40EBCC
S1131110C25008BF20F00100704790F0000F0CF09F
S1131120004C08BF49024CEA502040EA51207F3A63
S1131130C2BFD2F1FF0340EAC250704740F400003E
S11311404FF00003013A5DDC12F1190FDCBF00F02F
S113115000407047C2F10002410021FA02F1C2F1DD
S1131160200200FA02FC5FEA310040F1000053EA79
S11311704C0308BF20EADC70704792F0000F00F0C7
S1131180004C02BF400010F4000F013AF9D040EACD
S11311900C0093F0000F01F0004C02BF490011F461
S11311A0000F013BF9D041EA0C018FE70CEAD1535F
S11311B092EA0C0F18BF93EA0C0F0AD030F0004CDF
S11311C018BF31F0004CD8D180EA010000F0004093
S11311D0704790F0000F17BF90F0004F084691F051
S11311E0000F91F0004F14D092EA0C0F01D142028B
S11311F00FD193EA0C0F03D14B0218BF084608D154
S113120080EA010000F0004040F0FE4040F400009D
S1131210704740F0FE4040F4400070474FF0FF0C30
S11312201CEAD0521EBF1CEAD15392EA0C0F93EA77
S11312300C0F69D0A2EB030280EA010C49024FEAC9
S1131240402037D04FF0805343EA111143EA101382
S11312500CF000408B4238BF5B0042F17D024FF43A
S1131260000C8B4224BF5B1A40EA0C00B3EB510F15
S113127024BFA3EB510340EA5C00B3EB910F24BFFE
S1131280A3EB910340EA9C00B3EBD10F24BFA3EB83
S1131290D10340EADC001B0118BF5FEA1C1CE0D14B
S11312A0FD2A3FF650AF8B4240EBC25008BF20F0FE
S11312B0010070470CF0004C4CEA50207F32C2BF52
S11312C0D2F1FF0340EAC250704740F400004FF0EF
S11312D00003013A37E792F0000F00F0004C02BF20
S11312E0400010F4000F013AF9D040EA0C0093F0EA
S11312F0000F01F0004C02BF490011F4000F013B44
S1131300F9D041EA0C0195E70CEAD15392EA0C0FAB
S113131008D142027FF47DAF93EA0C0F7FF470AFE3
S1131320084676E793EA0C0F04D14B023FF44CAF26
S113133008466EE730F0004C18BF31F0004CCAD1BB
S113134030F000427FF45CAF31F000437FF43CAFF7
S11313505FE700BF4FF0FF3C06E000BF4FF0010C19
S113136002E000BF4FF0010C4DF804CD4FEA4002FB
S11313704FEA41037FEA226C18BF7FEA236C11D045
S113138001B052EA530C18BF90EA010F58BFB2EBF8
S1131390030088BFC81738BF6FEAE17018BF40F078
S11313A0010070477FEA226C02D15FEA402C05D12C
S11313B07FEA236CE4D15FEA412CE1D05DF8040BB1
S11313C0704700BF844608466146FFE70FB5FFF744
S11313D0C9FF002848BF10F1000F0FBD4DF808EDFC
S11313E0FFF7F4FF0CBF012000205DF808FB00BFED
S11313F04DF808EDFFF7EAFF34BF012000205DF847
S113140008FB00BF4DF808EDFFF7E0FF94BF012093
S113141000205DF808FB00BF4DF808EDFFF7D2FF90
S113142094BF012000205DF808FB00BF4DF808EDD3
S1131430FFF7C8FF34BF012000205DF808FB00BFA0
S11314404FEA40024FEA41037FEA226C02D15FEA8D
S1131450402C08D17FEA236C02D15FEA412C02D1EF
S11314604FF0000070474FF001007047014B1868BF
S1131470704700BF0400002008B5074B044613B1B1
S11314800021AFF30080054B1868836A03B19847C5
S1131490204600F05BFF00BF000000008423000032
S11314A070B500250C4E0D4CA41BA410A54209D107
S11314B000F04EFF00250A4E0A4CA41BA410A542BE
S11314C005D170BD56F8253098470135EEE756F83A
S11314D0253098470135F2E76800002068000020B5
S11314E0680000206C00002003460244934200D1AF
S11314F0704703F8011BF9E70FB40A4B13B51C68D6
S113150024B1A36913B9204600F04EF805AB049A40
S1131510A1682046019300F053F902B0BDE81040E1
S113152004B0704704000020002310B50446C0E94D
S11315300033836081814366C281C0E904338361DF
S1131540194608225C30FFF7CFFF054B2462636223
S1131550044BA362044BE362044B236310BD00BF3E
S1131560191D00003B1D0000731D0000971D0000A5
S1131570014900F085B800BF7120000070B56825EE
S11315804A1E55430E4605F1740100F097F80446CF
S113159040B10021C0E900160C30A06005F16802DA
S11315A0FFF7A2FF204670BD836910B5044633BB24
S11315B0C0E912330365124B124A1B6882629842D7
S11315C004BF0123836100F01FF86060204600F02F
S11315D01BF8A060204600F017F80022E060042108
S11315E06068FFF7A1FF01220921A068FFF79CFFB3
S11315F002221221E068FFF797FF0123A36110BDC7
S11316008423000071150000F8B51B4B07461E68C3
S1131610B36913B93046FFF7C7FF4836D6E901343A
S1131620013B03D5336833B13668F7E7B4F90C509E
S11316306DB16834F4E704213846FFF79FFF30604A
S11316400028F1D10C2304463B602046F8BD0B4B27
S11316506566C4E90055A560C4E90335C4E90555C8
S11316600822294604F15C00FFF73EFFC4E90D554A
S1131670C4E91255E9E700BF842300000100FFFF1D
S11316802DE9F84380468946002600F1480414B940
S11316903046BDE8F883D4E90175013F01D52468DB
S11316A0F5E7AB89012B07D9B5F90E30013303D027
S11316B029464046C84706436835EEE770B5CD1C59
S11316C025F0030508350C2D38BF0C25002D0646E2
S11316D001DBA94203D90C233360002070BD00F064
S11316E075FD214A1468214691B9204C23681BB921
S11316F0304600F001FB20602946304600F0FCFA39
S1131700431C24D10C233046336000F060FDE4E731
S11317100B685B1B18D40B2B0FD90B60CC18CD5066
S1131720304600F054FD04F10B00231D20F00700A7
S1131730C31AD3D05A42E250D0E74B688C4216BF4A
S1131740636013600C46EBE70C464968CCE7C41CA5
S113175024F00304A04205D0211A304600F0CCFA4C
S11317600130CFD02560DBE78C0000209000002002
S1131770936810B4013B002B936007DA9469A34289
S113178001DB0A2902D110BC00F00ABB1368581C03
S113179010601970084610BC7047F8B506460F462D
S11317A01446D518AC4201D1002007E03A4614F89B
S11317B0011B3046FFF7DCFF431CF3D1F8BD0000EA
S11317C02DE9F04F9DB00C4617460393064618B119
S11317D083690BB9FFF7E8FE7B4B9C4257D17468D1
S11317E0A38918075DD52369002B5AD000230993D8
S11317F020238DF8293030234FF0010B8DF82A3047
S1131800B846454615F8013B0BB1252B54D1B8EB2E
S1131810070A0BD053463A4621463046FFF7BDFF30
S1131820013000F0C280099B5344099398F80030BA
S1131830002B00F0BA8000234FF0FF32CDE90523DE
S1131840049307938DF853301A93A846052218F889
S1131850011B5E4800F0ACFC049B78BBD90644BF76
S113186020228DF853201A0744BF2B228DF85320D1
S11318702A782A2A2AD0A84600200A25079A41460F
S113188011F8013B303B092B69D960B324E0504B7C
S11318909C4201D1B468A3E74E4B9C4208BFF46854
S11318A09EE72146304600F0DFFA00289ED04FF034
S11318B0FF301DB0BDE8F08FA846A2E7434A454675
S11318C0801A0BFA00F018430490BEE7039A111D26
S11318D012680391002A01DB079204E0524243F0AC
S11318E002030792049398F800302E2B0ED198F837
S11318F001302A2B38D1039B08F102081A1D1B68FA
S11319000392002BB8BF4FF0FF330593324D0322EF
S113191098F80010284600F04BFC40B14023401BCF
S113192003FA00F0049B08F101080343049398F8B8
S113193000100622294808F101078DF8281000F04C
S113194037FC002837D0264B1BBB039B073323F0FF
S1131950070308330393099B4B44099350E705FBA2
S11319600232012088468AE700230A25194608F135
S113197001080593404610F8012B303A092A03D98F
S1131980002BC3D00591C1E705FB0121012380464B
S1131990F0E703AB00932246124B04A93046AFF3A1
S11319A00080B0F1FF3F8146D5D1A3895B063FF5A6
S11319B07EAF09987DE703AB00932246094B04A947
S11319C0304600F087F8ECE7A8230000E823000085
S11319D0C823000088230000EE230000F223000047
S11319E0000000009B1700002DE9F04791461F46B8
S11319F08A680B6906469342B8BF1346C9F800309B
S1131A0091F843200C46DDF8208012B10133C9F867
S1131A1000302368990642BFD9F800300233C9F870
S1131A200030256815F0060507D104F1190AE368AA
S1131A30D9F800209B1AAB4229DC94F84330226881
S1131A40003318BF012392062ED404F14302394611
S1131A503046C047013021D02368E56803F006030F
S1131A60042B18BF0025D9F800204FF0000908BF47
S1131A70AD1AA368226908BF25EAE5759342C4BF7D
S1131A809B1AED181A344D451AD1002008E00123A1
S1131A90524639463046C047013003D14FF0FF303B
S1131AA0BDE8F0870135C2E73020E11881F8430032
S1131AB05A1C94F845102244023382F84310C4E7B8
S1131AC00123224639463046C0470130E6D009F1A9
S1131AD00109D8E72DE9F04301F1430C0C46097ED6
S1131AE085B06E291746064698460C9A00F0B380D6
S1131AF022D8632936D00AD8002900F0B9805829A1
S1131B0000F0838004F1420584F8421032E0642935
S1131B1001D06929F6D120681368050603F1040190
S1131B202AD51B681160002B03DA2D225B4284F84E
S1131B3043206F480A2239E0732900F09D8008D8B9
S1131B406F2920D07029DDD1236843F0200323605E
S1131B5003E0752917D07829D4D17823654884F80F
S1131B60453055E0136804F14205191D1B681160E6
S1131B7084F8423001238CE01B6810F0400F1160A0
S1131B8018BF1BB2CFE713682568181D106028061C
S1131B9001D51B6802E06806FBD51B886F2914BFBA
S1131BA00A2208225248002184F843106568002D57
S1131BB0A560C0F29580216821F004012160002B0A
S1131BC03DD1002D40F08E806546082A0BD1236854
S1131BD0DB0708D5236962689A42DEBF302305F823
S1131BE0013C05F1FF35ACEB05032361CDF8008022
S1131BF03B4603AA21463046FFF7F6FE01304DD19D
S1131C004FF0FF3005B0BDE8F083394884F8451043
S1131C10136821681D1D1B6815600A060BD5CA07C9
S1131C2044BF41F0200121601BB9226822F0200248
S1131C3022601022B7E74D0648BF9BB2EFE7654626
S1131C40B3FBF2F102FB1133C35C05F8013D0B4613
S1131C500029F5D1B9E713682568181D616910607A
S1131C6028061B6801D5196002E06A06FBD51980B5
S1131C70002365462361B9E71368191D11601D68C7
S1131C8062680021284600F093FA08B1401B6060A6
S1131C9063682361002384F84330A7E723692A4655
S1131CA039463046C0470130AAD023689B0713D475
S1131CB0E068039B9842B8BF1846A3E701234A464D
S1131CC039463046C04701309AD00135E368039A5B
S1131CD09B1AAB42F2DCEBE7002504F11909F5E7A6
S1131CE0002BACD1037804F1420584F842306CE750
S1131CF0F92300000A24000038B50023054C0546EA
S1131D000846236000F00CFB431C02D1236803B196
S1131D102B6038BD9800002010B50C46B1F90E10A8
S1131D2000F0A2FA0028ABBF636DA3891B1823F44B
S1131D308053ACBF6365A38110BD2DE9F0411F46FC
S1131D408B890546DB050C46164605D50223002281
S1131D50B1F90E1000F0B6F9A389324623F480538A
S1131D60A381B4F90E103B462846BDE8F04100F0CB
S1131D7069B810B50C46B1F90E1000F0A3F9431C74
S1131D80A38915BF606523F4805343F48053A38172
S1131D9018BFA38110BDB1F90E1000F0D3B8000034
S1131DA0F8B50E461446054618B183690BB9FFF71A
S1131DB0FBFB214B9C422AD16C68A369A360A389D5
S1131DC01A072ED5236963B323692068F6B2C01AB3
S1131DD063693746834204DC2146284600F048F90B
S1131DE028BBA3680130013BA36023685A1C22600E
S1131DF01E706369834204D0A389DB0719D50A2EB8
S1131E0017D12146284600F033F990B10FE00B4B6F
S1131E109C4201D1AC68D0E7094B9C4208BFEC68F6
S1131E20CBE72146284600F01FF80028CCD04FF01D
S1131E30FF373846F8BD00BFA8230000C8230000C0
S1131E408823000038B50546084611460022054C93
S1131E5022601A4600F072FA431C02D1236803B1CF
S1131E602B6038BD98000020324B70B51D680646C3
S1131E700C4625B1AB6913B92846FFF795FB2E4BE9
S1131E809C420FD16C68B4F90C309AB215072CD46B
S1131E90D00611D40922326043F04003A3814FF0ED
S1131EA0FF303EE0254B9C4201D1AC68EBE7244B6C
S1131EB09C4208BFEC68E6E7510712D5616B41B15B
S1131EC004F14403994202D0304600F081F9002322
S1131ED06363A38923F02403A3810023636023693C
S1131EE02360A38943F00803A38123694BB9A38921
S1131EF003F42073B3F5007F03D02146304600F08D
S1131F0017F9A28912F001030CD00023A3606369BE
S1131F105B42A361236953B9B4F90C3013F0800018
S1131F20BAD170BD920758BF6369A360F2E700207D
S1131F30F7E700BF04000020A8230000C823000026
S1131F408823000038B50023054C05460846236065
S1131F5000F0BEF9431C02D1236803B12B6038BDE5
S1131F60980000208A892DE9F041054610070C46A7
S1131F7058D44B68002B05DC0B6C002B02DC0020D2
S1131F80BDE8F081E66A002EF9D0002312F48052F5
S1131F902F68216A2B6032D0606DA3895A0705D55A
S1131FA06368C01A636B0BB1236CC01A002302462A
S1131FB0E66A216A2846B047431CA38906D12968EA
S1131FC01D2948D8294ACA40D60744D50022626050
S1131FD02269D904226004D5421C01D12B6803B9BB
S1131FE06065616B2F600029C9D004F144039942F4
S1131FF002D0284600F0ECF800206063C0E701231B
S11320002846B047411CC8D12B68002BC5D01D2BD6
S113201001D0162B01D12F60B1E7A38943F040030F
S1132020A381ADE70F69002FA9D0930718BF002340
S11320300E6808BF4B69A6EB07080F608B60B8F108
S1132040000F9CDD43463A46216A2846A66AB047FB
S1132050002806DCA38943F04003A3814FF0FF303E
S11320608EE70744A8EB0008E9E700BF0100402021
S113207038B50B6905460C46DBB118B183690BB959
S1132080FFF792FA0C4B9C4209D16C68B4F90C30FE
S11320907BB121462846BDE83840FFF763BF074BB4
S11320A09C4201D1AC68F1E7054B9C4208BFEC6847
S11320B0ECE7002038BD00BFA8230000C8230000BF
S11320C08823000038B50546084611460022054C11
S11320D022601A4600F014F9431C02D1236803B1AC
S11320E02B6038BD9800002070B50E46B1F90E1073
S11320F096B0002914461D4607DA00232B60B389E5
S11321001A0610D44FF480630EE06A4600F0BEF85D
S11321100028F2DB019A02F47042A2F500535A42FD
S11321205A412A60EEE740230020236016B070BDB8
S11321308B8973B59D0706460C4607D504F1470302
S1132140236023610123636102B070BD01AB6A4661
S1132150FFF7CAFF009905463046FFF7AFFA48B9C2
S1132160B4F90C309A05EFD423F0030343F00203CF
S1132170A381E3E70D4BB362A389206043F080039E
S1132180A381009B20616361019B5BB1B4F90E10D4
S1132190304600F08DF828B1A38923F0030343F0FF
S11321A00103A381A3891D43A581CDE77115000017
S11321B010B5C9B202449042034601D1002303E0A2
S11321C01C7801308C42F6D1184610BD7047704718
S11321D038B50546002943D051F8043C0C1F002BA8
S11321E0B8BFE418FFF7F2FF1E4A1368104633B96C
S11321F0636014602846BDE83840FFF7E8BFA34297
S11322000BD921686218934201BF1A685B6852189F
S1132210226063600460EDE713465A680AB1A24283
S1132220FAD919685818A0420BD1206801445818EB
S113223082421960DED110685268014419605A6004
S1132240D8E702D90C232B60D4E7206821188A42EE
S113225001BF116852680918216062605C60C9E7B7
S113226038BD00BF8C00002038B50546084611462D
S11322700022054C22601A4600F04AF8431C02D1A1
S1132280236803B12B6038BD9800002038B50023C3
S1132290064C054608461146236000F021F8431C0D
S11322A002D1236803B12B6038BD00BF9800002021
S11322B038B50023054C05460846236000F018F89D
S11322C0431C02D1236803B12B6038BD9800002061
S11322D05822024B4FF0FF301A60704798000020DC
S11322E05822024B4FF0FF301A60704798000020CC
S11322F05822024B00201A60704700BF980000204B
S11323005822024B4FF0FF301A60704798000020AB
S11323105822024B4FF0FF301A607047980000209B
S1132320044A05491368002B08BF0B461844106083
S11323301846704794000020A00000205822024B49
S11323404FF0FF301A60704798000020FEE700BF8E
S1132350F8B500BFF8BC08BC9E467047F8B500BF8E
S1132360F8BC08BC9E46704725660A0079203D20CB
S1132370256678202B2025660A000000737172748C
S113238066000000080000200000000000000000BB
S11323900000000000000000000000000000000039
S11323A00000000000000000000000000000000029
S11323B00000000000000000000000000000000019
S11323C00000000000000000000000000000000009
S11323D000000000000000000000000000000000F9
S11323E00000000000000000232D302B2000686C4A
S11323F04C00656667454647003031323334353624
S1132400373839414243444546003031323334355C
S11324103637383961626364656600000000000085
S10B2420DCDCFF7F0100000079
S1132428010000000800002000000000A8230000AC
S1132438C8230000882300000000000000000000FA
S11324480000000000000000000000000000000080
S11324580000000000000000000000000000000070
S11324680000000000000000000000000000000060
S11324780000000000000000000000000000000050
S11324880000000000000000E1000000BD000000A2
S90301718A
